:0C0000000C94C3000C9400000C94000051
:10000C000C9400000C9400000C9400000C94000064
:10001C000C9400000C9400000C9400000C94000054
:10002C000C9400000C9400000C9400000C94000044
:10003C000C9400000C9400000C9400000C94000034
:10004C000C9400000C9400000C9400000C94000024
:10005C000C9400000C9400000C9400000C94000014
:10006C000C9400000C9400000C9400000C94000004
:10007C000C9400000C9400000C9400000C940000F4
:10008C001027E80364000A000100001000011000B2
:10009C0001000000000000001F0000000000000034
:1000AC001F001F00000000001F001F001F000000A9
:1000BC001F001F001F001F001F111F0004041F0042
:1000CC001E11111E11111E001010101010101F0007
:1000DC001111111111110E001F10101F10101F0003
:1000EC00000000000000000015151515151F0A0072
:1000FC000E04040404040E00111919151313110035
:10010C001E11111E141211001F10101F10101F00B1
:10011C001E11111111131E00000000000000000040
:10012C00000000000000000015151515151F0A0031
:10013C000E04040404040E001119191513131100F4
:10014C0001002D4E414E00494E46000080C001007A
:10015C0002009E0004000400A00027000005A4007B
:10016C003F002805CC003F0068050C010100A805E4
:10017C004C010200AC0558010000F894EE27ECBBD2
:10018C00F1E0F5BFE5BFE0936C008DE0A2E0BB278A
:10019C00ED938A95E9F780E090E1A0E0B1E0ED9372
:1001AC000197E9F7EAE5F1E085919591009761F007
:1001BC00A591B59105901590BF01F00105900D9298
:1001CC000197E1F7FB01F0CF8BBFEFEFEDBFE0E163
:1001DC00EEBFC0E0D5E00C9479050E94D8069D973F
:1001EC004CF4AC81BD81559724F0AC81BD815E97F8
:1001FC000CF004C001E010E00E94E106AA81BB8172
:10020C009D974CF4AA81BB81559724F0AA81BB81A0
:10021C005E970CF004C002E010E00E94EA0648C3AE
:10022C000E94D806119741F0AA81BB81149721F046
:10023C00AA81BB81159711F40F5F1F4F39C3FF9231
:10024C000E943C0800E010E020E030E0E3B3E170F5
:10025C00E13019F42F5F3F4FF9CFD9010E942D06E1
:10026C000E94F306F0F80E94FC06F1F80E94FC06CE
:10027C00F2F80E94FC06F3F8E0E0F0FCE1E0F0E0BC
:10028C00DF01E0E0F1FCE1E0F0E0AE0FBF1FE0E0E9
:10029C00F2FCE1E0F0E0AE0FBF1FE0E0F3FCE1E0C8
:1002AC00F0E0EA0FFB1F8F010E9441082496FF909B
:1002BC0008951A9310E0E3B3E170E13091F0E3B3E9
:1002CC00E1701E2F689420F8E3B3E170E13029F05F
:1002DC00A1E0B0E00E94F607F7CFA2E0B0E00E94E8
:1002EC00F607E12F19910895E89420F8E92DF0E034
:1002FC00E130A0E0FA0709F4A2DF08950E9401079B
:10030C00AA81BB81159721F40E94080779964FC0EA
:10031C00AA81BB811A9761F4AC81BD81139719F442
:10032C0001E210E004C00E9408077E968F0140C0D5
:10033C00AA81BB81999721F0AA81BB819A97B9F4C4
:10034C000E940F079B9711F401E210E0AA81BB8178
:10035C00999721F4AC81BD81119709F003C00AE291
:10036C0010E004C00E940F0711978D0121C0AA81D3
:10037C00BB81919721F40E940807399618C0AA8175
:10038C00BB815F9724F0AA81BB8194970CF00DC0C0
:10039C000E940F0794972CF00E940F0754978D0121
:1003AC0003C00E9408078F0103C00E9408078F0139
:1003BC007FC20E94D8069A9719F401E210E01DC082
:1003CC00AC81BD81919791F4AA81BB81159741F0C5
:1003DC00AA81BB815F9721F0AA81BB81909719F408
:1003EC0002E210E002C00BE210E007C0EE81FF81D8
:1003FC00AC81BD81EA0FFB1F8F01F80119810881C7
:10040C0028960895BA93AA93EA81FB81309721F438
:10041C000E94E106AB981CC1E130A0E0FA0721F480
:10042C00D8980E94160714C1E230A0E0FA0721F414
:10043C00D89A0E9416070CC1E330A0E0FA0721F409
:10044C00D8980E941F0704C1E430A0E0FA0721F4F9
:10045C00D89A0E941F07FCC0E530A0E0FA0721F4EF
:10046C00D8980E942807F4C0E630A0E0FA0721F4DF
:10047C00D89A0E942807ECC0E730A0E0FA0721F4D4
:10048C00D8980E943107E4C0E830A0E0FA0721F4C4
:10049C00D89A0E943107DCC0E930A0E0FA0721F4B9
:1004AC00D8980E943A07D4C0EA30A0E0FA0721F4A9
:1004BC00D89A0E943A07CCC0EB30A0E0FA0721F49E
:1004CC00D8980E944307C4C0EC30A0E0FA0721F48E
:1004DC00D89A0E944307BCC0ED30A0E0FA0721F483
:1004EC00D8980E944C07B4C0EE30A0E0FA0721F473
:1004FC00D89A0E944C07ACC0EF30A0E0FA0741F448
:10050C00D8980E945507DD9ADE9ADF9AAB9AA0C064
:10051C00E031A0E0FA0739F40E945A07DD98DE9822
:10052C00DF98AB9A95C0E131A0E0FA0741F4D89A74
:10053C000E945507DD98DE98DF98AB9A89C0E231AE
:10054C00A0E0FA0739F40E945A07DD9ADE98DF988A
:10055C00AB9A7EC0E331A0E0FA0741F4D89A0E942E
:10056C005507DD9ADE98DF98AB9A72C0E431A0E0B3
:10057C00FA0739F40E945A07DD98DE9ADF98AB9A95
:10058C0067C0EF31A0E0FA0741F4D89A0E945507F2
:10059C00DD98DE9ADF98AB9A5BC0E032A0E0FA07F8
:1005AC0039F40E945A07DD9ADE9ADF98AB9A50C054
:1005BC00E132A0E0FA0741F4D89A0E945507DD9A7F
:1005CC00DE9ADF98AB9A44C0E232A0E0FA0739F425
:1005DC000E945A07DD98DE98DF9AAB9A39C0E33255
:1005EC00A0E0FA0741F4D89A0E945507DD98DE98EE
:1005FC00DF9AAB9A2DC0E932A0E0FA0739F40E94D9
:10060C005A07DD9ADE98DF9AAB9A22C0EA32A0E054
:10061C00FA0741F4D89A0E945507DD9ADE98DF9AC2
:10062C00AB9A16C0EB32A0E0FA0739F40E945A07D5
:10063C00DD98DE9ADF9AAB9A0BC0EC32A0E0FA0799
:10064C0039F4D89A0E945507DD98DE9ADF9AAB9A56
:10065C00E881F981309721F40E94EA06AC981CC11C
:10066C00E130A0E0FA0721F4C0980E94600714C1A1
:10067C00E230A0E0FA0721F4C09A0E9460070CC196
:10068C00E330A0E0FA0721F4C0980E94690704C186
:10069C00E430A0E0FA0721F4C09A0E946907FCC07C
:1006AC00E530A0E0FA0721F4C0980E947207F4C06C
:1006BC00E630A0E0FA0721F4C09A0E947207ECC061
:1006CC00E730A0E0FA0721F4C0980E947B07E4C051
:1006DC00E830A0E0FA0721F4C09A0E947B07DCC046
:1006EC00E930A0E0FA0721F4C0980E948407D4C036
:1006FC00EA30A0E0FA0721F4C09A0E948407CCC02B
:10070C00EB30A0E0FA0721F4C0980E948D07C4C01A
:10071C00EC30A0E0FA0721F4C09A0E948D07BCC00F
:10072C00ED30A0E0FA0721F4C0980E949607B4C0FF
:10073C00EE30A0E0FA0721F4C09A0E949607ACC0F4
:10074C00EF30A0E0FA0741F4C0980E949F07C59AC9
:10075C00C69AC79AAC9AA0C0E031A0E0FA0739F467
:10076C000E94A407C598C698C798AC9A95C0E13169
:10077C00A0E0FA0741F4C09A0E949F07C598C6985A
:10078C00C798AC9A89C0E231A0E0FA0739F40E940C
:10079C00A407C59AC698C798AC9A7EC0E331A0E06E
:1007AC00FA0741F4C09A0E949F07C59AC698C79849
:1007BC00AC9A72C0E431A0E0FA0739F40E94A407A5
:1007CC00C598C69AC798AC9A67C0EF31A0E0FA07F3
:1007DC0041F4C09A0E949F07C598C69AC798AC9AD4
:1007EC005BC0E032A0E0FA0739F40E94A407C59A76
:1007FC00C69AC798AC9A50C0E132A0E0FA0741F40F
:10080C00C09A0E949F07C59AC69AC798AC9A44C0D2
:10081C00E232A0E0FA0739F40E94A407C598C69802
:10082C00C79AAC9A39C0E332A0E0FA0741F4C09AF7
:10083C000E949F07C598C698C79AAC9A2DC0E932FA
:10084C00A0E0FA0739F40E94A407C59AC698C79A83
:10085C00AC9A22C0EA32A0E0FA0741F4C09A0E9496
:10086C009F07C59AC698C79AAC9A16C0EB32A0E0FF
:10087C00FA0739F40E94A407C598C69AC79AAC9A8D
:10088C000BC0EC32A0E0FA0739F4C09A0E949F0723
:10089C00C598C69AC79AAC9A24C10E940107EA81EE
:1008AC00FB81AC81BD81EA17FB0711F401E010E07C
:1008BC00F8011981088126960895BA93AA93E881C4
:1008CC00F981309709F076C0A1E00E94AA06EA816E
:1008DC00FB81E130A0E0FA0789F4AA24BB240E9432
:1008EC00AA075CF4EA2DE05CEA93A0E0B5E00E9474
:1008FC00AF07F50131965F01F2CF53C0E230A0E0B3
:10090C00FA0789F4AA24BB240E94AA075CF4EA2DF6
:10091C00E05CEA93E8E0F5E00E94B807F501319657
:10092C005F01F2CF3EC0E330A0E0FA0789F4AA24BD
:10093C00BB240E94AA075CF4EA2DE05CEA93E0E198
:10094C00F5E00E94B807F50131965F01F2CF29C09E
:10095C00E430A0E0FA0789F4AA24BB240E94AA0779
:10096C005CF4EA2DE05CEA93E8E1F5E00E94B8075C
:10097C00F50131965F01F2CF14C0E530A0E0FA0723
:10098C0081F4AA24BB240E94AA075CF4EA2DE05C43
:10099C00EA93E0E2F5E00E94B807F50131965F01B9
:1009AC00F2CFE0E0EA93A0E00E947506A0E00E947E
:1009BC00910697C0A8E00E94AA06AA24BB240E9414
:1009CC00AA070CF07DC0A881B9811197B9F5EA2D61
:1009DC00E05CEA93A8E2B5E00E94AF07EA2DE85B81
:1009EC00EA93E0E3F5E00E94B807EA2DE05BEA93B6
:1009FC00E8E3F5E00E94B807EA2DE85AEA93E0E450
:100A0C00F5E00E94B807EA2DE05AEA93E8E4F5E035
:100A1C000E94B807EA2DE859EA93E0E5F5E00E9458
:100A2C00B807EA2DE059EA93E8E5F5E00E94B8072B
:100A3C00EA2DE858EA93E0E6F5E036C0EA2DE05CF2
:100A4C00EA93A8E6B5E00E94AF07EA2DE85BEA93CB
:100A5C00E0E7F5E00E94B807EA2DE05BEA93E8E7EF
:100A6C00F5E00E94B807EA2DE85AEA93E0E8F5E0D1
:100A7C000E94B807EA2DE05AEA93E8E8F5E00E94F4
:100A8C00B807EA2DE859EA93E0E9F5E00E94B807C7
:100A9C00EA2DE059EA93E8E9F5E00E94B807EA2D5F
:100AAC00E858EA93E0EAF5E0EA0DFB1DA0810E940C
:100ABC006D0689E18A95F1F7F50131965F017FCFDB
:100ACC00E0E0EA93A0E00E947506AA24BB240E94F1
:100ADC00AA073CF4AA2D0E949106F50131965F01FC
:100AEC00F6CF249608952697E3E0FE2E00E010E062
:100AFC0020E030E041E050E0EFEFEABBE7BBEFE194
:100B0C00E4BB0E94E1060E94EA06A998AA9AAB9857
:100B1C00AC98E7EFE2BB0E94C107309709F08DC09B
:100B2C00042E052A59F4002E012A19F401E010E0D4
:100B3C0002C000E010E041E050E0EDCF002E012AB1
:100B4C0019F4A998AA9A02C0A99AAA98B2DB9E2E67
:100B5C0020FCCADB74DB9F01022E032A11F425E072
:100B6C0030E03A932A930E94C107DF01A6DE415080
:100B7C005040002E012A39F54C825D82288339833E
:100B8C00A881B9810E943308BCF4F1FE05C00E9413
:100B9C00C607D201B3DB07C00E94C6075A924A921D
:100BAC00A885B98506DC2F010E94CB07E881F98165
:100BBC003197E883F983E4CF0E94D707F0FE02C097
:100BCC006624772426C06A827B8228833983A88195
:100BDC00B9810E943308BCF4F1FE05C00E94C6071F
:100BEC00D3018CDB07C00E94C6077A926A92AE8151
:100BFC00BF81DFDB3F010E94CB07E881F981319790
:100C0C00E883F983E4CF0E94D707F0FE02C04424A6
:100C1C0055245A924A92D301F5DB6894F1F8E0E03E
:100C2C00F0FCE1E0F0E0FA93EA93D901F9DAAF01D4
:100C3C00AAE0B0E00E94F6076ECFA998AA983A9362
:100C4C002A930E94C107DF0138DE2696FFCFBA93A4
:100C5C00AA93E881F9810E9404080E94E0074CC025
:100C6C00E091A805F091A9056091AA057091AB05DA
:100C7C00ADE6BEE486EC91E40E940908EE59F84812
:100C8C006F4F7F4F0E94E007FB01FF770895AA93F7
:100C9C00E2B3EF70AE2FE881E07FEA2BE2BB8CE091
:100CAC008A95F1F7929A8CE08A95F1F792988CE0FC
:100CBC008A95F1F775C0AA93A881E9DFE881E295DE
:100CCC00E883A881E4DF8BE78A95F1F769C0AA93E2
:100CDC00A981F1DF909AA881EEDF90980DC0AA93BC
:100CEC00E881F0E0E455FA4FE081A981AE0FE3DF33
:100CFC008980E881E093B00522960895A2E00E94D5
:100D0C00E907ACE0D8DFA1E00E94E907E0E0E0935E
:100D1C00B0058E2E0895AA93A881AA3021F0E091F7
:100D2C00B1058E1658F0E0E0EA93A091B005AF5FE4
:100D3C00A093B005D4DFA881AA3091F18394909A46
:100D4C00A881B9DF90982CC0AA93E1B3E06FE1BB06
:100D5C008A9A889A899A929890989198E881E093C7
:100D6C00B105E058E093AE05E881E054E093AF059F
:100D7C00A4E1B0E00E94F6070E94EF070E94EF0783
:100D8C000E94EF07A0E283DF86EF8A95F1F7A8E2D5
:100D9C0092DFA4E090DFA5E88EDFA6E08CDFAEDF6B
:100DAC0021960895BA93AA931A930A9300E010E03F
:100DBC00AC81BD810895D89AD99ADA9ADB9ADC9ADB
:100DCC00DD9ADE9ADF9A0895C09AC19AC29AC39AA4
:100DDC00C49AC59AC69AC79A08950E943606A1E08D
:100DEC00B0E00E9429080E9437080895A1E0B0E005
:100DFC000E94F607F2CFBA93AA931A930A9300E0D3
:100E0C0010E00895EC81FD81AA81BB81EA0FFB1FE4
:100E1C000895EC81FD81AA81BB81AE0FBF1F08959F
:100E2C00D998DA98DB98DC9ADD9ADE9ADF9AAB9A3D
:100E3C000895D99ADA98DB98DC9ADD9ADE9ADF9AD3
:100E4C00AB9A0895D998DA9ADB98DC9ADD9ADE9AF7
:100E5C00DF9AAB9A0895D99ADA9ADB98DC9ADD9AE4
:100E6C00DE9ADF9AAB9A0895D998DA98DB9ADC9AD5
:100E7C00DD9ADE9ADF9AAB9A0895D99ADA98DB9AC2
:100E8C00DC9ADD9ADE9ADF9AAB9A0895D998DA9AB1
:100E9C00DB9ADC9ADD9ADE9ADF9AAB9A0895D99A9E
:100EAC00DA9ADB9ADC9A0895D89AD99ADA9ADB9A6C
:100EBC00DC980895C198C298C398C49AC59AC69AEA
:100ECC00C79AAC9A0895C19AC298C398C49AC59A05
:100EDC00C69AC79AAC9A0895C198C29AC398C49AF4
:100EEC00C59AC69AC79AAC9A0895C19AC29AC398E1
:100EFC00C49AC59AC69AC79AAC9A0895C198C298D2
:100F0C00C39AC49AC59AC69AC79AAC9A0895C19ABC
:100F1C00C298C39AC49AC59AC69AC79AAC9A0895AD
:100F2C00C198C29AC39AC49AC59AC69AC79AAC9ADF
:100F3C000895C19AC29AC39AC49A0895C09AC19A44
:100F4C00C29AC39AC4980895E8E0F0E0AE16BF06C2
:100F5C000895AA0DBB1DAC910E946D0689E18A957E
:100F6C00F1F70895EA0DFB1DA0810E946D0689E141
:100F7C008A95F1F708955A924A92D3010C94F30092
:100F8C00E1E0F0E0FA93EA9308955A924A92D30181
:100F9C000E940802A4EFB1E00E94F607E894F1F871
:100FAC0008955A924A92D3010E9453040E94370822
:100FBC00F0F80895E093A805F093A9056093AA05AD
:100FCC007093AB0508950E946106A3E0B0E00C9409
:100FDC00F607A0E30E944D0686EF8A95F1F7089577
:100FEC00109639F083E397E00197F1F7A8951197E4
:100FFC00C9F70895F195E195F04008956F2F660FAC
:10100C00660B762F08957A9F702D6B9F700DF89F4D
:10101C00700DE99F700D6A9F602D710DFB9F600D27
:10102C00711DE89F600D711D8827FA9FF02D610DD1
:10103C00781FEB9FF00D611D781FEA9FE02DF10DDD
:10104C00681F781F0895E894F7FF02C0D3DF6894F7
:10105C00EA23FB230EF4CEDF089500240A160B06B8
:10106C000895E894EE2309F0689408953A932A932E
:10107C001A930A9308953B812A8119810881089556
:00000001FF
